:03000000020100FA
:1001000075811E12810C120142E52012810212013A
:100110005EE520128102742B128102742D1281027D
:10012000742A128102742F128102E520128102E5E5
:100130002012810212017A12811CB40AFA80C48052
:10014000FE007441128102743D12810212811CC0B2
:10015000E012811CC0E0120199F91281042274425C
:10016000128102743D12810212811CC0E012811CB6
:10017000C0E0120199FA1281042212811CB40A040F
:100180001201D722B40B041201E822B40C041202AB
:100190001122B40DE512022E22D006D007D0F0D0E5
:1001A000E0540FC453F00F45F0C007C00622D0063C
:1001B000D007D0E0C0F0FC540FFDECC4540F75F034
:1001C0000AA42DD0F0C007C0062275F00A84C454DA
:1001D000F053F00F45F022E92AD4FDE43400443016
:1001E000128102ED12810422E9C0E01201AEF9EAA7
:1001F000C0E01201AEFAC3E99A40071201CA1281A7
:100200000422742D128102C3EA991201CA128104D8
:1002100022E9C0E01201AEF9EAC0E01201AEFAE94B
:100220008AF0A4F9E5F0128104E912810422EA704F
:1002300033745A1281027441128102744212810293
:100240007452128102744F128102744E1281027430
:1002500049128102744F128102744E128102744558
:1002600012810222E9C0E01201AEF9EAC0E01201F7
:10027000AEFBE98BF084ACF01201CA128104746900
:10028000128102EC1201CA128104742F128102EA57
:0402900012810422B1
:00000001FF
